:020000040800F2
:10000000600D00209D010008794600082932000893
:1000100031450008590A0008695200080000000034
:10002000000000000000000000000000FD4A000881
:10003000F50B000800000000B14A0008F14B000871
:10004000B7010008B7010008B7010008B7010008B0
:10005000B7010008B7010008B7010008F70B000856
:10006000B7010008B7010008B7010008B701000890
:10007000B7010008B7010008B7010008B701000880
:10008000B7010008B7010008B7010008B701000870
:10009000B7010008B7010008B7010008B701000860
:1000A000AD4C0008D14C0008C54C0008B94C000804
:1000B000B7010008DD4C0008B7010008B7010008CF
:1000C000B7010008393200082D320008B7010008D6
:1000D000B701000839520008455200085152000883
:1000E000B7010008B7010008B7010008B701000810
:1000F000B7010008B7010008B7010008B701000800
:10010000B7010008B7010008B7010008B7010008EF
:10011000B7010008B7010008E94C0008B701000862
:10012000B7010008B7010008B7010008B7010008CF
:10013000B7010008B7010008B7010008B7010008BF
:10014000B7010008B7010008B7010008B7010008AF
:10015000B7010008B7010008B70100085D520008A8
:10016000B7010008B7010008B7010008B70100088F
:10017000B7010008B7010008B7010008000000003F
:10018000B7010008B7010008DFF80CD000F06CFBE5
:1001900000480047E9710008600D002006488047CC
:1001A00006480047FEE7FEE7FEE7FEE7FEE7FEE75C
:1001B000FEE7FEE7FEE7FEE79D4C00088901000828
:1001C0002DE9F05F0546002092469B46884606468C
:1001D000814640241BE0284641464746224600F01F
:1001E00045FA53465A46C01A914110D31146184653
:1001F000224600F02CFA2D1A67EB01084F462246E2
:100200000120002100F023FA17EB00094E41201EC7
:10021000A4F10104DFDC484631462A464346BDE8E6
:10022000F09FD2B201E000F8012B491EFBD27047CB
:100230000022F6E710B513460A4604461946FFF7B2
:10024000F0FF204610BD2DE9FE4F804681EA0300F5
:10025000C00F0C46009021F0004123F00045B8EBA0
:100260000200A94105D24046214690461C460B4655
:10027000024623F00040104347D0270DC7F30A0081
:10028000C3F30A510290401A019040286BDAC3F37D
:10029000130040F4801B0098924620B10023D2EB5B
:1002A000030A63EB0B0B01985946C0F1400250461C
:1002B00000F0CDF906460D4650465946019A00F029
:1002C000E5F910EB08006141002487EA115284EA45
:1002D000E7731A4340D0009A62B3019A012A4FEAA9
:1002E000075215DC001B61EB02014FF0004202EAED
:1002F0000752CDE90042001C41F5801132462B46E1
:1003000000F01CFA03B0BDE8F08F40462146F9E743
:10031000001B61EB0201001C41F5801300185B41DA
:100320002018A2F5001747EB030140EAD570B61973
:100330006D4111E06D084FEA360645EAC0754FEA97
:100340000752001B61EB0201001C41F580114908B6
:100350004FEA30000019514132462B4603B0BDE848
:10036000F04F00F0DCB90098012240000023D0EBF0
:10037000020263EBE073009821464FEAE074B8EBA9
:10038000000061EB0401E9E783F000435BE781F0E3
:10039000004158E72DE9FE4F81EA030404F00044D0
:1003A00021F0004100944FF0000B23F0004350EA8D
:1003B00001045ED052EA03045BD0C3F30A54C1F3D4
:1003C0000A552C44A4F2F3340194A0FB0254C1F367
:1003D000130141F48011C3F3130343F4801301FBB1
:1003E000024400FB034E840A970A44EA815447EA18
:1003F0008357A4FB076802958D0A05FB07854FEA22
:10040000932C04FB0C542705029D4FEA065847EA3B
:100410001637B5EB08056EEB070C870E920E47EA10
:10042000811742EA8312A7FB0201B6EB0B0164EBD2
:1004300000042B0D43EA0C335E1844EB1C50DA46E3
:100440005146E7FB0201C5F313044FEA0B3343EABD
:1004500014534FEA0432019C43EA0603A4F10C044E
:100460000294009CCDE900B400F068F903B0BDE847
:10047000F08F00200146F9E72DE9F04D81EA0304F1
:1004800004F0004B21F0004514464FF0000A23F021
:10049000004150EA050220D054EA01021DD0C5F304
:1004A0000A570246C5F31303C1F31300C1F30A56FA
:1004B00040F4801543F48013A7EB0608101BD646C2
:1004C00008F2FD3873EB050002D308F1010801E0E2
:1004D00092185B41B8F1000F03DA00200146BDE835
:1004E000F08D00204FF48011064684460EE0171B65
:1004F00073EB050705D3121B63EB050306434CEAB8
:10050000010C49084FEA300092185B4150EA01079C
:10051000EDD152EA030012D082EA040083EA050119
:10052000084305D0101BAB4106D20122002306E090
:1005300000224FF0004302E06FF0010253101AEB6B
:1005400006004CEB085110EB0A0041EB0B01BDE833
:10055000F04D00F0E4B80EB5C10F80EAE070084439
:10056000CA07002140F233438DE80E000A460B46CD
:1005700000F0E4F803B000BD0EB540F23341029143
:100580000021CDE900110A460B4600F0D7F803B070
:1005900000BDC1F30A5210B5C1F3130140F2FF339D
:1005A00041F480119A4201DA002010BD40F2334339
:1005B0009A42A2F2334203DC524200F057F810BDD7
:1005C000904010BD00F0004230F000400AD0C10D54
:1005D00001F56071C0F3160042EA0151C2084007FC
:1005E0001143704700200146704701F0004330B4CA
:1005F00021F0004150EA010206D00A0DA2F5607216
:10060000C1F31301002A02DC30BC00207047440F04
:1006100044EAC104C100E01830BC00EBC25000F055
:1006200047B830B50B46014600202022012409E0DE
:1006300021FA02F59D4205D303FA02F5491B04FA9B
:1006400002F52844151EA2F10102F1DC30BD202A7A
:1006500004DB203A00FA02F1002070479140C2F119
:10066000200320FA03F3194390407047202A04DB4B
:10067000203A21FA02F00021704721FA02F3D0401B
:10068000C2F120029140084319467047202A06DB38
:10069000CB17203A41FA02F043EAE07306E041FA50
:1006A00002F3D040C2F1200291400843194670473E
:1006B0000029A8BF7047401C490008BF20F0010076
:1006C000704710B4B0FA80FC00FA0CF050EA010454
:1006D00004BF10BC704749B1CCF1200421FA04F4E6
:1006E00011FA0CF118BF012121430843A3EB0C01BF
:1006F000CB1D4FEA00614FEA102042BF002010BC22
:10070000704700EBC35010440029A4BF10BC7047D1
:10071000401C490008BF20F0010010BC704710B514
:10072000141E73F1000408DA401C41F10001921814
:100730005B411A4301D120F0010010BD2DE9F04DBD
:1007400092469B4611B1B1FA81F202E0B0FA80F212
:1007500020329046FFF77BFF04460F4640EA0A002E
:1007600041EA0B0153465A46084313D0114653EA57
:10077000010019D0C8F140025046FFF777FF054647
:100780000E46504659464246FFF761FF084305D0E2
:10079000012004E020463946BDE8F08D00200543E5
:1007A00046EAE0762C4337430A986305E40AA0EB57
:1007B00008000022FD0A44EA47540A3002D500200E
:1007C0000146E9E7010510196941DDE9084500190D
:1007D0006941BDE8F04DA2E770B521F00043034345
:1007E0000CD0C1F30A550024D5EB040564EB0403D7
:1007F000D617AD1AB34102DB0020014670BD2018A8
:1008000041EB025170BDC1F30A52C1F3130140F232
:10081000FF3341F480119A4202DA0020014670470A
:1008200040F233439A42A2F2334202DC5242FFF7D3
:100830001DBFFFF70CBF000030B5041E71F10004AE
:1008400004DB4FF00044404264EB0101141E73F1DD
:10085000000405DB1C464FF00043524263EB0403E7
:10086000994208BF904230BD064C074D06E0E06853
:1008700040F0010394E8070098471034AC42F6D3E7
:10088000FFF786FC88760008A87600082DE9F04D71
:1008900000231A461B1A8A4103DB00200146BDE8EB
:1008A000F08DC1F30A52C1F3130141F480154FF0EA
:1008B000000BD10702D100186D41521E00270446DB
:1008C00040F2FF11384601EB620A3E46804602467E
:1008D00000204FF48011FFF7C9FEC2197141BB1807
:1008E00046EB0100B4EB030C75EB000C04D3E41AE7
:1008F00065EB000517460E46241908F101006D410D
:1009000080463428E3DDF91946EB0600091BA841AF
:1009100003D24FF0FF32134601E0002213461BEBD7
:10092000070046EB0A51BDE8F04DFFF7F8BE0000A6
:10093000074801780748012901700548807804D0EC
:10094000022901D10449087070470449FBE70000FF
:10095000F8000020040000200A0000200C00002005
:100960002DE9F041354D364F00262DED068B2878C8
:1009700010B1012806D012E0A87823280FD1012059
:10098000287050E0A978242913D02C294DD06878FC
:1009900027F81010401C6870E878401CE870274960
:1009A0000122BDEC068B891CBDE8F041254802F010
:1009B000ADBB68780228F2D1DFF880809FED229BE2
:1009C0009FED23AB002408F1060800BFB0EE491AE2
:1009D000F0EE691AB0EE4A0AF0EE6A0A05F038F84D
:1009E00037F81400B0EE408AF0EE608A3038FFF736
:1009F000B2FD53EC182BFFF7CDFC41EC180BA88887
:100A0000FFF7BAFD53EC182BFFF71DFCFFF7C1FDF4
:100A100028F81400641CAE80022CD7DBFFF788FF97
:100A20002E706E70AE703E60B9E7E878012803D092
:100A30002E706E70AE703E60EE70B0E7F200002077
:100A4000300600201003002000000000000000001D
:100A50000000000000002440FEE7000070B5194CC3
:100A600001210025A1702571E5712572FFF773FD45
:100A70009FED151B53EC112BFFF7FEFC9FED141B94
:100A800053EC112BFFF786FC41EC100B84ED0E0BA1
:100A9000FFF7ABFD00EE100A0F4806F0EDFC94EDF9
:100AA0000E0B51EC100BFFF7A0FD00EE100A0B48E7
:100AB00006F0E2FC03F0EEF904F012F8A561E5613E
:100AC00070BD000028000020701283C0CAA12B4016
:100AD00000000000004090401C0400203C04002066
:100AE000034902480968008848637047EA0000200B
:100AF0003C0200202DE9F041394F3A4900252DED07
:100B0000048B387810B1012807D013E0B878232877
:100B100010D1012038700D600CE0B878242813D073
:100B20002C2853D07A7821F81200521C7A70F87869
:100B3000401CF8702A490122BDEC048B891CBDE8D9
:100B4000F041294802F0E2BA78781028F2D1002664
:100B50009FED269B88460024C4F10300FFF7FBFCB1
:100B600041EC110BB0EE490AF0EE690A04F070FF97
:100B700004EB8601B0EE408A38F81100F0EE608A8E
:100B80003038FFF7E8FC53EC182BFFF703FC41EC7F
:100B9000180BB888FFF7F0FC53EC182BFFF753FB4A
:100BA000FFF7F7FC641CB880042CD5DB0C49891DC9
:100BB00021F81600761CBD80042ECCDBFFF790FFD9
:100BC0003D707D70BD70C8F80050B3E7F878042818
:100BD00003D03D707D70BD700D60FD70AAE7000010
:100BE000E4000020A0040020980300200000000082
:100BF000000024407047022000F0AABB154810B541
:100C0000016800224A6214490B685A620368921E06
:100C10001A610B681A610268D36843F00103D3605C
:100C20000A68D36843F00103D3600068026842F0A9
:100C3000040202600868016841F0040101603C217F
:100C4000044801F019FDBDE810403C21024801F0C4
:100C500013BD000064010020AC01002072B6FEE765
:100C600070B5F0EE402AB6EE000A2DED048B22EEB0
:100C7000802A8AB00D460446FE4AF0EE001AB7EE0E
:100C8000008A92ED010AD2ED030A92ED021AFA49A6
:100C900020EE200AD2ED000A00EEC10A20EE210A61
:100CA0008DED000A92ED000AD2ED010A92ED031AD1
:100CB00020EE200AD2ED020A00EE810A20EE210A7F
:100CC0008DED010A92ED010AD2ED010A92ED021AB0
:100CD00020EE200AD2ED020A00EE810AF0EE480A68
:100CE00040EE610ACDED020AB1F9060000EE100AED
:100CF000B1F9080000EE900AB8EEC00AB8EEE01AAA
:100D000000EE900A20EE000AB1F90A00F8EEE00ABF
:100D100001EE200A00EE900AB8EEE01A00EE900A0A
:100D2000F8EEE00A01EE200A03F0C4FEB4F9060072
:100D3000D04E00EE900AF8EEE00A60EE800ACDEDAB
:100D4000030AB4F9080000EE900AF8EEE00A60EE3B
:100D5000800ACDED040AB4F90A0000EE900AC648F4
:100D6000F8EEE00A2C30583E20EE800A8DED050AA0
:100D70009DED040ADDED020A9DED011A20EE200A28
:100D8000DDED050A00EEC10A8DED060A9DED050AAE
:100D9000DDED000A9DED021A20EE200ADDED030ACA
:100DA00000EEC10A8DED070A9DED030ADDED010A93
:100DB0009DED001A20EE200ADDED040A00EEC10AC6
:100DC0008DED080A90ED003ADDED060A96ED020A77
:100DD00000EE803A80ED003A90ED011ADDED070A51
:100DE00000EE801A80ED011AD0ED020ADDED083A1E
:100DF00043EE800AC0ED020AB4F9000000EE100ACA
:100E0000F8EEC03A9FED9D0ADDED064A23EE804ADA
:100E1000D6ED013A03EEA44A34EE033A8DED003AE2
:100E2000B4F902009DED074A03EE100AB8EEC33A8A
:100E300023EE003A03EE843A33EE011A8DED011AE7
:100E4000B4F9040001EE100AB8EEC11A21EE000A4E
:100E50009DED081A03EE810A30EE200A8DED020A9C
:100E600092ED010ADDED000A9DED011A9DED013ABA
:100E700020EEC00AD2ED020ADDED013A9DED004AF6
:100E800000EEC10AD2ED030A9DED021A00EEC10A7E
:100E90009DED001A60EE020A92ED000A20EE010AB2
:100EA00092ED031A01EE430A92ED021A9DED023A09
:100EB00001EE030A9DED003A20EE021A92ED030ABC
:100EC00020EE030A92ED003A03EE230A92ED013A76
:100ED000DDED023A03EE630ADDED013A20EE023A5F
:100EE00092ED010A20EE230AD2ED023A03EEC40A83
:100EF000D2ED003A9DED024A03EE840A20EE020A8A
:100F000092ED002A72EE200AC2ED000AD2ED010A2B
:100F100070EE810AC2ED010AD2ED020A70EE830A78
:100F2000C2ED020AD2ED030A30EE800A82ED030A16
:100F300092ED000AD2ED000A92ED011A20EE200A8D
:100F4000D2ED010A00EE810AD2ED020A92ED021AF8
:100F500000EE810AD2ED030A92ED031A00EE810A37
:100F600003F0A8FDD2ED000A464960EE800AC2ED0A
:100F7000000AD2ED010A60EE800AC2ED010AD2ED4C
:100F8000020A60EE800AC2ED020AD2ED030A20EEE8
:100F9000800A82ED030A92ED000AD2ED020AB4F94A
:100FA000040020EE210A60EE208A92ED010AD2EDC3
:100FB000030A20EE210A40EE608A92ED020AD2ED89
:100FC000030A20EE210A20EE209A92ED000AD2EDCB
:100FD000010A20EE210A00EE209A92ED010AD2EDDC
:100FE000010A20EE210A00EE608A92ED020AD2ED9B
:100FF000020A20EE210A00EE608A00EE100ADFED00
:10100000200AB8EEC00A20EE201A11EE100A88421B
:1010100004DC11EE100A10F17F5F05D995ED020A8C
:1010200001EE220A85ED020A18EE900AFFF7CAFACD
:1010300041EC100B04F034FA9FED131B51EC100B34
:1010400053EC112BFFF7A6F9FFF7CFFAF0EE480AA1
:10105000B0EE490A686004F0D3FBDFED0D0A20EE24
:10106000200A85ED000AB4F9060000EE100AB8EE79
:10107000C00A0FE0D4000020680400202E9E0B3A26
:10108000F6FFF93C0000404000000020DCA54C4089
:10109000E12E6542B4F9080020EE280A00EE900A1D
:1010A000B4F90A00F8EEE00A00EE890A00EE900AB0
:1010B000F8EEE00A00EE880A86ED030A0AB0BDECFD
:1010C000048B70BD0C4810B501680868486A00239D
:1010D00002B20A4802614B62094909680C684C6A0D
:1010E00024B2644244614B62816911448161C169E7
:1010F0002144C16110BD00006401002028000020CF
:10110000AC0100202DE9F0413B4F0421384600F0AE
:1011100023FA01250026394C012821D02670082108
:10112000384600F019FA01281CD0667010213846A4
:1011300000F012FA012817D0A6702021384600F0DE
:101140000BFA012812D0E6704021384600F004FA6C
:1011500001280DD0267160789FED290A50B110E06A
:101160002570DCE76570E1E7A570E6E7E570EBE781
:101170002571F0E7A178012903D1E17831B1012986
:1011800008D0A27850EA020107D009E084ED020AF3
:10119000BDE8F0819FED1B0AF8E7E178012902D054
:1011A000012803D00DE09FED180AEFE712B1012AE4
:1011B00005D006E0E17821B99FED140AE6E7E17871
:1011C00019B12178012903D008E09FED110ADDE76C
:1011D00020B91AB9E3780BB9237953B10143E07808
:1011E00011430143D2D120790128CFD19FED090AC3
:1011F000CCE79FED090AC9E700100240700000200B
:101200000000000000002F4400001644000016C437
:1012100000002FC400007A4400007AC42DE9F04198
:101220000446876D00F0A2F9064694F835000025C3
:10123000022806D08020606584F834500120BDE883
:10124000F0812068016821F0160101602068416981
:1012500021F080014161206C08B9A06C20B12068A8
:10126000016821F0080101602068016821F0010196
:1012700001600CE000F07AF9801B052807D92020D6
:101280006065032084F8350084F83450D7E720687F
:101290000068C007EED194F85C103F208840B86029
:1012A000012084F8350084F834500020C7E790F816
:1012B0003510022903D080214165012070470521A6
:1012C00080F835100068016821F0010101600020FC
:1012D000704790F83500704770B5044600F046F945
:1012E0000546601C02D004480078044400F03EF932
:1012F000401BA042FAD370BD1400002070B5022834
:1013000011D102210F4800F027F901460E480F4C79
:10131000012909D00122102100F023F920780128A9
:1013200001D10020207070BD012121700A461021DA
:10133000054600F016F92846BDE87040012220213C
:1013400000F00FB900080240000C02400600002027
:10135000044910B50A68024202D00860FFF7CEFFC8
:1013600010BD0000143C01402DE9F84FDFF8BCA18E
:10137000002201250AF1040B03264FF00F090BF19F
:10138000040E00BF0B6805FA02F42340A34270D19B
:101390000F7907F00307012F01D0022F16D18768BC
:1013A0004FEA420806FA08FC27EA0C07D1F80CC0FD
:1013B0000CFA08FC4CEA070CC0F808C04768A743C1
:1013C0000C79C4F3001494403C4344600C79E4432A
:1013D000A4070AD0C4684FEA420C06FA0CF7BC43D3
:1013E0008F6807FA0CF72743C7600C7904F00304F1
:1013F000022C12D1D40800EB840CDCF820405707F3
:10140000FF0E09FA07F824EA0804D1F8108008FA58
:1014100007F848EA0408CCF8208004684FEA420C38
:1014200006FA0CF7BC430F7907F0030707FA0CF72D
:10143000274307604C6814F4403F70D03C4C276849
:1014400047F480472760246822F0030704F48044AF
:101450000094384C07EB040CDCF8084897074FEA77
:10146000177809FA08F7BC43334FB84202D1002776
:1014700024E054E0314FB84201D101271EE0304F43
:10148000B84201D1022719E02E4FB84201D10327FB
:1014900014E02D4FB84201D104270FE02B4FB84282
:1014A00001D105270AE02A4FB84201D1062705E0FD
:1014B000284FB84201D1072700E0082707FA08F7AC
:1014C0002743CCF80878DAF800405746D1F804C032
:1014D0009C435FEACC3C00D51C433C60DBF80040F9
:1014E0005F46D1F804C09C435FEA8C3C00D51C43A6
:1014F0003C60DEF800407746D1F804C09C435FEAC8
:10150000CC2C00D51C433C60084F0C373C68D1F80C
:1015100004C09C435FEA8C2C00D51C433C60521CE9
:10152000102AFFF42FAFBDE8F88F0000003C014007
:1015300044380240003001400000024000040240F4
:1015400000080240000C024000100240001402405B
:1015500000180240001C02400069084000D0012031
:1015600070470AB1816170470904FBE70148806850
:101570007047000014000020704770472DE9F041CB
:10158000016804464A694E6890F83E000025D7433A
:10159000FA0506D4F243D20503D46FF48072012514
:1015A0004A61B90508D4F143C90505D422686FF42E
:1015B000007145F002055161790525D4F143C90553
:1015C00022D4638D94F83D10226B202808D13BB9BA
:1015D000212910D029290ED0282901D1212A0AD069
:1015E00022686FF48061516145F00405102806D02F
:1015F000402804D008E0204602F084FA04E0206885
:10160000016841F400710160380508D4F043C00559
:1016100005D421686FF4006045F008054861002D8D
:1016200007D0206C284320642046BDE8F04101F03B
:1016300067BEBDE8F0812DE9F047026800215368DC
:10164000C66A90F83E4090F83D50102C12D0402CC5
:1016500010D0046C002C7DD05469E443A6077AD4E2
:10166000DE43B60577D4036C03B19169BDE8F0475A
:1016700002F024BA976951694FF42A0CC9435FEA12
:10168000C1784FF02A4904D066452AD04E4528D06B
:1016900010E0DE43B6050DD4C16A614501D10121D8
:1016A00003E0C16A494501D10821C162BDE8F047A4
:1016B00002F0F0B80E0716D4DE43B60513D4416C21
:1016C000C9B21161416B09B1C96B29B9816B00299C
:1016D00007D0C96B002904D00068416841F400615B
:1016E0004160BDE8F0878E0706D4DE43B60503D41B
:1016F000BDE8F04702F042B8FE43526876074FEA71
:1017000002521DD4002AECDB0A0608D4DA43520543
:1017100005D4490705D5BDE8F04701F0D3BF490717
:10172000DFD4D9438905DCD4212D05D0402CD8D174
:10173000BDE8F04702F0F4B8BDE8F04701F080BF23
:10174000002ACEDB4A060BD4DA43520508D44907F7
:1017500008D501E00DE00EE0BDE8F04701F0FCBE69
:101760004907BED4D9438905BBD4BDE8F04701F091
:101770008ABE916970E7E10606D4D943890503D48E
:10178000BDE8F04702F000BA2821212D27D0292DED
:1017900025D0650655D4DD436D0552D4640752D576
:1017A00090F83D30448D002C9BD01269446A227021
:1017B000426A521C4262428D521E4285428D002A6C
:1017C0008FD12A2B8DD10268536823F48063536034
:1017D0002222026380F83D1000F052FA81E72506CC
:1017E00023D4DD436D0520D4640720D590F83D3027
:1017F000448D002CF2D0446A24781461426A521C51
:101800004262428D521E4285428D002AE6D1292B2A
:10181000E4D10268536823F4806353602122026399
:1018200080F83D1000F02DFA5BE76107D6D4D9436C
:101830008905D3D4418D0029D0D0416A097811613E
:101840000AE06107CAD4D9438905C7D4418D00296C
:10185000C4D01169426A1170416A491C4162418DCC
:10186000491E41853DE7704770B5040025D094F8C6
:101870003D00002520B984F83C50204600F0BAF91C
:10188000242084F83D002068016821F001010160F6
:101890002068016841F4004101602068016821F47A
:1018A0000041016000F022FB4D4A6168914201D87D
:1018B0004C4900E04C49884201D2012070BD4B499F
:1018C0002368B0FBF1F15E6826F03F060E435E60D0
:1018D0006368934206D94FF4967359434FF47A7371
:1018E000B1FBF3F12368491C1E6A26F03F06314321
:1018F00019626168914210D84900401EB0FBF1F2B4
:10190000521CC2F30B02042A01D2042022E0B0FBD5
:10191000F1F0401CC0F30B001CE0A268F2B301EB35
:10192000C10303EB0116431EB3FBF6F35B1C43F448
:1019300080431B0549D092B301EBC10202EB0111B8
:10194000401EB0FBF1F0401CC0F30B0040F480409F
:1019500040F400402168CA694CF6FF739A43104373
:10196000C861D4E9071001432068026822F0C00270
:1019700011430160D4E9030101432068826848F201
:10198000FF339A4311438160D4E90501084321687C
:10199000CA6822F0FF021043C86001E00EE016E0C2
:1019A0002068016841F0010101602564202084F86D
:1019B0003D00256384F83E50002070BD01EB4106D8
:1019C000431EB3FBF6F35B1CB3E70120C2E701EB58
:1019D0004101401EB0FBF1F0401CC0F30B00B7E723
:1019E000A086010080841E0000093D0040420F00D7
:1019F0007047704770477047704700002DE9FF4FF0
:101A000083B09A46DDE9119793460446DDF840809D
:101A1000FFF7ACFD054694F83D00202870D119234E
:101A2000012271492046009502F05CF90028F5D1A9
:101A300094F83C00012863D0012084F83C00206821
:101A40000168C90703D1016841F001010160206804
:101A5000016821F400610160222084F83D004020EB
:101A600084F83E0000262664C4F82480A4F82A9056
:101A7000608D20855D48E062CDE9007553465A4689
:101A80002046049901F09CFF00287CD1208DD0B124
:101A9000012821D00228206824D041698069009063
:101AA000208D032869D801282BD0514902283B46B4
:101AB0004FF00002009559D08846204602F012F9F6
:101AC000002860D13CE0206841698169009101688B
:101AD00041F40071016077E02068016821F48061C1
:101AE0000160F0E7016821F480610160206801680D
:101AF00041F400610160206841698069009063E001
:101B00006FE02A463946204602F06BF998BB206800
:101B10000069616A08704EE02068016841F4007154
:101B2000016020680069616A0870606A401C606238
:101B3000218D491E2185618D491E6185216838E00E
:101B40002068016821F48061016020680069616A91
:101B50000870606A401C6062208D401E2085608D88
:101B6000401E60853B46002241460095204602F01B
:101B7000B9F800B9D0E706E0FFE72A463946204623
:101B800002F02FF918B1012007B0BDE8F08F2068EE
:101B90000069616A0870606A401C6062218D491E9C
:101BA0002185618D491E618521684A69D2435207AA
:101BB0000AD409690170606A401C6062208D401E71
:101BC0002085608D401E6085208D00287FF468AFE1
:101BD000202084F83D0084F83E6084F83C600020BA
:101BE000D2E70220D0E70000020010000000FFFF53
:101BF0000400010010B586B0044614216846FEF7C3
:101C000017FB1C492068884231D11B48002102681B
:101C100042F002020260006800F0020005904FF4FA
:101C2000406000901220CDE90101032003900420C0
:101C3000049069461148FFF797FB0F481030016880
:101C400041F4800101600068002200F480000590EA
:101C50001146212000F07EF8212000F06DF80022CE
:101C60001146222000F076F8222000F065F806B038
:101C700010BD00000058004030380240000402400F
:101C8000704770470248816802781144816070474C
:101C9000140000200B4810B5016841F40071016088
:101CA000016841F480610160016841F48071016064
:101CB000032000F06FF80F2000F006F800F024F881
:101CC000002010BD003C024070B50D4D04464FF49D
:101CD0007A712878B1FBF0F00A490968B1FBF0F09D
:101CE00000F018FB48B9102C07D200222146501EE4
:101CF00000F030F800206C6070BD012070BD000065
:101D000014000020200000200A4808B5016841F4B2
:101D100080410160006800F4804000900548001F89
:101D2000016841F080510160006800F0805000902F
:101D300008BD000044380240002809DB00F01F0203
:101D4000012191404009800000F1E020C0F800111D
:101D500070470000F0B40E4B1B680C46C3F302231F
:101D6000C3F10705042D00D90425191D072901D247
:101D7000002300E0DB1E012606FA05F1491E214082
:101D800099409E40761E16403143F0BC03F075BB6F
:101D90000CED00E0064900F0070208684FF6FF036B
:101DA000184040EA0220034A1043086070470000D0
:101DB0000CED00E00000FA052DE9F0470E460500A5
:101DC00065D0DFF81481D8F80000F7B200F0070002
:101DD000B04207D288F80070D8F8000000F0070081
:101DE000B04254D128683D4C810712D5400703D535
:101DF000206840F4E05020602878000703D5206870
:101E000040F4604020602068A96820F0F00008439A
:101E100020602878C0072DD030496868083901282B
:101E200012D0022813D0032811D00968890700298D
:101E30002DDA216821F0030101432160FFF796FBB1
:101E4000814641F2883A0EE009688903EFE70968A4
:101E50008901ECE7FFF78AFBA0EB0901514502D9A4
:101E60000320BDE8F0872068696800F00C00B0EB43
:101E7000810FEFD1D8F80010404601F00701B142C0
:101E800007D90770006800F00700B04201D00120B8
:101E9000E7E72878400705D52068E96820F4E05096
:101EA000084320602878000706D52068296920F4B7
:101EB000604040EAC100206000F038F82168084A1C
:101EC000C1F30311515CC840064908600648006828
:101ED000FFF7FAFE0020C4E7003C02400838024049
:101EE0008A750008200000201800002004480549D9
:101EF00000680968044AC1F38221515CC8407047F8
:101F000020000020083802409A750008044805495E
:101F100000680968044AC1F34231515CC840704707
:101F200020000020083802409A750008154810B5B6
:101F3000006810F00C02144813D01449042A0FD082
:101F4000082A0ED10F4C241F2268236802F03F029A
:101F50005B0207D52068C0F38810A0FB010106E0F2
:101F6000084610BD2168C1F38811A1FB00010023C0
:101F7000FEF726F92168C1F30141491C4900B0FB75
:101F8000F1F010BD083802400024F40040787D01D3
:101F90002DE9F84F04006ED02078DFF84C93C0078D
:101FA000A9F104054AD009F104000168C1F38101D7
:101FB000012908D00068C0F3810002280AD1D9F8AD
:101FC0000000400206D52868800337D560680028E5
:101FD000E1D033E06068B0F5803F10D0B0F5A02FBD
:101FE000286810D020F480302860286820F48020F1
:101FF00028606068A8B1FFF7B9FA06460DE02868C6
:1020000040F48030F4E740F480202860F7E700BF18
:10201000FFF7ACFA801B642873D828688003F7D5D3
:102020000CE0FFF7A3FA064605E000BFFFF79EFAB3
:10203000801B6428F0D828688003F7D42078DFF864
:10204000AC8280074FF0000A3ED5A748001D01680A
:1020500011F00C0F08D00068C0F3810002280BD1EA
:10206000D9F80000400207D42868800716D5E06838
:10207000012800D112E033E1E068B8B10120C8F8CE
:102080000000FFF773FA064605E000BFFFF76EFA9F
:10209000801B0228C0D828688007F7D528682169E6
:1020A00020F0F80040EAC10028600DE0C8F800A068
:1020B000FFF75CFA064604E0FFF758FA801B022897
:1020C0001FD828688007F7D42078000722D5864FCC
:1020D00087486169703771B101210160FFF746FAE5
:1020E000064604E0FFF742FA801B022809D8386848
:1020F0008007F7D50EE0C0F800A0FFF737FA0646D4
:1021000005E082E0FFF732FA801B02287DD83868AC
:102110008007F7D42078400768D5DFF8CCB10027D6
:102120000BF13C0BDBF80000C0000BD4DBF8001017
:1021300041F08051CBF80010DBF80000012700F0DF
:10214000805000906B4E3068C00510D4306840F469
:1021500080703060FFF70AFA009005E0FFF706FA9A
:102160000099401A022850D83068C005F6D55E4E56
:10217000A0686C3601280FD00528306810D020F0F8
:1021800001003060306820F004003060A068B8B111
:10219000FFF7ECF900900FE0306840F00100F4E741
:1021A00040F004003060F7E7FFF7E0F90099411ACA
:1021B00041F28830814266D830688007F4D50EE05D
:1021C000FFF7D4F9009007E0FFF7D0F90099411A22
:1021D00041F28830814256D830688007F4D42FB15C
:1021E000DBF8001021F08051CBF80010A069C8B3D3
:1021F0003D49091D0968C1F3810102294AD002281D
:10220000504607D0C8F8600000E03CE0FFF7AEF9A8
:1022100004463BE04746C8F86000FFF7A7F90646CA
:1022200005E000BFFFF7A2F9801B02282BD8286821
:102230008001F7D4D4E907010843A16A2E4A49086E
:1022400002EB0141626A41EA8211084394F82C10C2
:1022500040EA0161C9F8001001203866FFF786F9ED
:10226000044606E03EE000BFFFF780F9001B0228AD
:1022700009D828688001F7D534E000BFFFF776F968
:10228000001B022802D90320BDE8F88F28688001CE
:10229000F4D427E00128F7D0D9F80000E26900F46F
:1022A000800191421CD1226A00F03F01914217D176
:1022B00047F6C071626A0140B1EB821F10D1A26A79
:1022C0004FF0FF3300F4403103EB5202B1EB024F09
:1022D00006D194F82C1000F07060B0EB016F01D0C3
:1022E0000120D1E70020CFE7043802400000474238
:1022F000800E4742007000400000FFFF4FF0E021D9
:102300000428086903D020F004000861704740F0F9
:102310000400FAE710B5401EB0F1807F01D3012020
:1023200010BD4FF0E02460610F21601703F0A5F8A5
:102330000020A06107202061002010BD7047704779
:1023400070B590F83C20012A32D0012480F83C403E
:10235000022280F83D2003685A689D6822F07006CA
:102360000A6832435A60134B02689A4214D0B2F1A1
:10237000804F11D0104B9A420ED0104B9A420BD086
:102380000F4B9A4208D00F4B9A4205D00E4B9A42FF
:1023900002D00E4B9A4204D1496825F080031943BC
:1023A000916080F83D40002180F83C10084670BDE7
:1023B000022070BD00000140000400400008004001
:1023C000000C0040000401400040014000180040A3
:1023D00010B5040003D094F83D0010B107E00120CF
:1023E00010BD002084F83C00204600F01FF80220B9
:1023F00084F83D00211D206802F07CFC012084F857
:10240000460084F83E0084F83F0084F8400084F8D9
:10241000410084F8420084F8430084F8440084F8C2
:10242000450084F83D00002010BD000008B500689C
:102430000B49884212D10B48016841F0100101603C
:102440000068002200F01000009001213620FFF704
:1024500081FCBDE808403620FFF76EBC08BD0000D7
:10246000001000404038024090F83D10012901D092
:1024700001207047022180F83D100168CA6842F0CF
:102480000102CA6000681149884214D0B0F1804F3F
:1024900011D00F4988420ED00E4988420BD00E4908
:1024A000884208D00D49884205D00D49884202D0A3
:1024B0000C49884204D1816801F00701062903D044
:1024C000016841F0010101600020704700000140F7
:1024D0000004004000080040000C004000040140DF
:1024E00000400140001800402DE9F0410D46040075
:1024F00003D094F83D0018B108E00120BDE8F08158
:10250000002084F83C00204600F040F8022084F8C7
:102510003D002068816844F2070291438160211DDB
:10252000206802F0E7FB226890689169166A2B68C0
:10253000AF69034340F20330814341EA0721A868B1
:10254000EF6908434FF6FC418843E96840EA0720F9
:10255000014328692F6A000140EA0730084369688F
:102560006D6926F0AA0646EA05152943936022689C
:10257000906154F8460B0162012004F81F09E075D0
:102580002076E0762077A0750020B7E730B587B0D9
:10259000044614216846FDF74BFE334D22680021A6
:1025A000324802230124AA423ED1304A143215682F
:1025B00045F001051560126802F0010205920268FB
:1025C00042F010020260006800F0100005904FF425
:1025D00020600090CDE90131CDE90314694624481B
:1025E000FEF7C2FE002211461820FFF7B3FB1820A9
:1025F000FFF7A2FB002211461920FFF7ABFB1920C1
:10260000FFF79AFB002211461A20FFF7A3FB1A20BE
:10261000FFF792FB002211461B20FFF79BFB1B20BC
:10262000FFF78AFB07B030BDB2F1804FFAD10F4AF5
:102630001032156845F001051560126802F00102BC
:102640000592026842F001020260006800F0010099
:10265000059003200090CDE90131CDE903146946CE
:102660000448FEF781FEDDE70000014030380240FB
:10267000001002400000024070B590F83E60044631
:1026800090F83F5090F8423090F84320022021B15A
:1026900004290ED0012E1BD114E0012E18D1012BDC
:1026A00016D184F83E0084F84200012200212068FF
:1026B00020E0012D0CD1012A0AD184F83F0084F8D2
:1026C000430014E0012D03D1012B01D1012A01D0D7
:1026D000012070BD84F83E0084F83F0084F8420079
:1026E00084F8430001220021206802F067FB0122E8
:1026F0000421206802F062FB2068016841F00101BA
:102700000160002070BD704770B504460068016923
:102710004FF00005C943890715D4C168C94389072B
:1027200011D4E91E016101202077206880698007AB
:10273000204602D0FFF7E7FF04E000F0DBF8204678
:1027400000F096F9257720680169C943490717D435
:10275000C168C943490713D46FF004010161022025
:1027600020772068806910F4407F204602D0FFF770
:10277000CAFF04E000F0BEF8204600F079F92577A2
:1027800020680169C943090716D4C168C94309070C
:1027900012D46FF008010161042020772068C0691D
:1027A0008007204602D0FFF7AEFF04E000F0A2F859
:1027B000204600F05DF9257720680169C943C90604
:1027C00017D4C168C943C90613D46FF01001016161
:1027D000082020772068C06910F4407F204602D08E
:1027E000FFF791FF04E000F085F8204600F040F983
:1027F000257720680169C943C90708D1C168C94361
:10280000C90704D1891E0161204600F097F92068AC
:102810000169C943090609D4C168C943090605D439
:102820006FF0800101612046FFF788FD2068016993
:10283000C943490609D4C168C943490605D46FF0A4
:1028400040010161204600F03FFA20680169C94358
:1028500089060BD4C168C943890607D46FF02001EB
:1028600001612046BDE87040FFF769BD70BD000002
:1028700010B586B0044614216846FDF7D9FC2368DC
:10288000174C002117480222A34210D1036843F0DD
:1028900001030360006800F001000590C020009073
:1028A000CDE90121CDE9031269460F4813E00F4C31
:1028B000A34212D1036843F008030360006800F0EC
:1028C000080005904FF440500090CDE90121CDE97A
:1028D000031269460648FEF747FD06B010BD00002A
:1028E0000004004030380240000002400008004070
:1028F000000C0240704770B5044690F83C0000267A
:102900000D4601280FD0012084F83C006AB1042A4A
:102910001DD0082A2FD00C2A3FD00126002084F891
:102920003C00304670BD022070BD206802F054FAB1
:102930002068816941F0080181612068816921F086
:1029400004018161206881692A69114311E02068CE
:1029500002F072FA2068816941F4006181612068A7
:10296000816921F480618161206881692A6941EA75
:1029700002218161D2E7206802F094FA2068C169DF
:1029800041F00801C1612068C16921F00401C16101
:102990002068C1692A69114311E0206802F0B6FA83
:1029A0002068C16941F40061C1612068C16921F4F6
:1029B0008061C1612068C1692A6941EA0221C1615F
:1029C000ACE710B5040003D094F83D0010B107E067
:1029D000012010BD002084F83C00204600F01EF8C5
:1029E000022084F83D00211D206802F083F90120B7
:1029F00084F8460084F83E0084F83F0084F84000E4
:102A000084F8410084F8420084F8430084F84400CC
:102A100084F8450084F83D00002010BD08B5114A37
:102A200001681148914211D1016841F00201016031
:102A30000068002200F00200009011461D20FFF700
:102A400089F9BDE808401D20FFF776B9074A914291
:102A500007D1016841F004010160006800F0040042
:102A6000009008BD000400404038024000080040CB
:102A70007047000010B50446022249B104290ED067
:102A8000082913D094F84100012816D0012010BD68
:102A900094F83E000128F9D184F83E200FE094F824
:102AA0003F000128F2D184F83F2008E094F840006C
:102AB0000128EBD184F8402001E084F84120012274
:102AC000206802F07BF916492068164A884201D036
:102AD000904203D1436C43F400434364206888422E
:102AE00013D0B0F1804F10D00F4988420DD00F495C
:102AF00088420AD00E49884207D0904205D00D493D
:102B0000884202D00C49884204D1816801F0070153
:102B1000062903D0016841F001010160002010BDC9
:102B20000000014000040140000400400008004093
:102B3000000C004000400140001800402DE9F04129
:102B40004F492DED048B006888427DD1FEF7BAFA1B
:102B5000FEF7D8FA01F07CFD4A4D4B484B4E85ED0F
:102B6000000A00784A4F012848D13078012802D065
:102B70003878012842D102F09BFBDFF81881B8F8C1
:102B800000000446FDF7F8FC9FED439B53EC192B26
:102B9000FDF772FCFDF729FD00EE900A00EE104AE9
:102BA0003F48B8EE400A90ED008A08EE200ABCEEDD
:102BB000C00A10EE100A84B2A8F800402046FDF7C3
:102BC000DBFC53EC192BFDF757FCFDF70EFD00EE77
:102BD000100A3448018800EE901AF8EE600A48EEB8
:102BE000400ABCEEE00A10EE101A8BB203802E48A9
:102BF000214602782D48007801F010FD2C49087814
:102C0000012838D13078012802D03878012832D113
:102C1000284895ED000AB0EE001AD0ED000A2648CB
:102C200030EE600AD0ED000A70EE811AF4EEC01AA0
:102C3000F1EE10FA1FDB70EEC10AF4EEC00AF1EEFD
:102C400010FA18D81D4800E015E00288521C92B214
:102C50000280022A0FD10022194B0A70012119703B
:102C6000184B1970028001F08DFCBDEC048BBDE89F
:102C7000F04101F0C3BCBDEC048BBDE8F081000065
:102C800000100040680000202A0000202D000020D5
:102C90002E000020320000200000000000008940CB
:102CA00078000020340000202900002028000020A7
:102CB0002B000020480000204C0000206C00002069
:102CC000300000202C000020704770477047000043
:102CD000F8B5016804460868CA684B6910F00F0F20
:102CE0004FF000055AD003F0010602F49077374305
:102CF00065D0C10705D0D10503D5216C41F0010194
:102D00002164410705D5D90703D0216C41F00201A8
:102D10002164810705D5D90703D0216C41F0040156
:102D20002164010707D502F02001314303D0216C53
:102D300041F008012164216C00293BD0800604D5B4
:102D4000900602D5204602F038F920684069216CCF
:102D5000C0F3801001F00801014320462BD002F09F
:102D600005F920684069400621D52068143050E8F4
:102D7000001F21F0400140E80012002AF5D1A06BAD
:102D8000A8B16C490165A06BFEF791FA002811D03B
:102D9000A06B016D01B0BDE8F040084783060ED579
:102DA00093060CD52046BDE8F84002F006B920464F
:102DB000FFF78CFFF8BDFFF789FF2564F8BD266B90
:102DC0002023012E79D1C60677D5D60675D5086899
:102DD000486800904869400640D5A16B0868406883
:102DE0000004000CEAD0A28D8242E7D9E085C869D0
:102DF000B0F5807F2DD020680C3050E8001F21F402
:102E0000807140E80012002AF5D12068143050E8A3
:102E1000001F21F0010140E80012002AF5D12068CE
:102E2000143050E8001F21F0400140E80012002A51
:102E3000F5D184F83E30256320680C3050E8001F3F
:102E400021F0100140E80012002AF5D1A06BFEF736
:102E5000E5F9A08DE18D401A81B229E0A08DE18DC8
:102E6000401A81B2E08D0028A8D00029A6D02068A1
:102E70000C3050E8002F22F4907240E80026002E1B
:102E8000F5D12068143050E8002F22F0010240E80C
:102E90000026002EF5D184F83E30256320680C30E2
:102EA00050E8002F22F0100240E80023002BF5D15B
:102EB0002046FFF70AFFF8BDFFE705062BD51506EC
:102EC00029D594F83D002128F5D1A068B0F5805FA0
:102ED00001D12069B0B1206A411C216221680078CB
:102EE0004860E08C401E0004000CE084E3D12068C0
:102EF000C16821F08001C1602068C16841F04001D3
:102F0000C160D8E7206A0088C0F308004860206AE2
:102F1000801C2062E5E74006CDD55006CBD5CA68B7
:102F2000204622F04002CA6084F83D3000F07BF970
:102F3000C1E700005D4F000870B5040004D094F8AC
:102F40003D00002510B106E0012070BD84F83C5022
:102F5000204600F023F8242084F83D002068C16852
:102F600021F40051C160204602F088F82068016910
:102F700021F4904101612068416921F02A014161F9
:102F80002068C16841F40051C1602564202084F8A4
:102F90003D0084F83E00002070BD0000F0B587B011
:102FA000044614216846FDF743F9276850494F4C01
:102FB00000224F4B1439022503264E484FF0070CD0
:102FC000A7421FD11C6844F010041C601B6803F06A
:102FD000100305930B6843F001030B60096802AC12
:102FE00001F0010105917102CDE9001584E844105A
:102FF0006946FEF7B9F9002211462520FEF7AAFE20
:10300000252024E03A4CDFF8F0E0241F774522D158
:10301000236843F400332360236803F400330593EB
:103020000B6843F001030B60096802AB01F001017A
:1030300005910C21CDE9001583E844106946FEF79F
:1030400093F9002211462620FEF784FE2620FEF783
:1030500073FE07B0F0BD2948874221D1206840F4B3
:1030600080202060206800F480200590086840F0EF
:1030700008000860086802AB00F0080005904FF4F3
:103080004070CDE9000583E8441069461C48FEF70E
:103090006BF9002211462720FEF75CFE2720D6E7B9
:1030A00018488742D5D1186840F020001860186889
:1030B00000F020000590086840F0040008600868EF
:1030C000029200F004000590C020CDE90005082020
:1030D000CDE9036069460C48FEF746F90022114627
:1030E0004720FEF737FE4720B1E7000000100140FF
:1030F00044380240000002400044004000480040C4
:10310000000C0240001401400008024090F83E30DC
:10311000202B0ED159B152B190F83C30012B08D080
:10312000012380F83C300023036302F02DB8012016
:10313000704702207047000010B5044600680A4935
:10314000884201D1FDF70CFC08492068884201D172
:10315000FDF7D0FC06492068884203D1BDE8104045
:1031600001F0CEBB10BD000000440040001401403F
:10317000001001402DE9F843044690F83D001F4639
:1031800016460D4620284CD1C5B1BEB194F83C007E
:10319000012846D0012084F83C004FF00008C4F814
:1031A0004080212084F83D00FEF7E0F9A6848146A6
:1031B000E684A068B0F5805F03D004E00120BDE89C
:1031C000F883206928B12E465FF0000584F83C8022
:1031D0000EE00026FAE78021204601F0F0FFA0B9BA
:1031E000AEB116F8010B21684860E08C401EE08407
:1031F000E08C4B464FF0000200970028EBD14FF0D7
:103200004001204601F0DBFF30B10320D7E735F85D
:10321000020BC0F30800E6E7202084F83D00002000
:10322000CDE70220CBE77047FEE700000148FEF73C
:10323000A5B90000100100200148FEF7FCB900000C
:103240001001002038B5806B002190F83D202B4BF9
:1032500046F2A8141B68B3FBF4F3C3EBC30303EB00
:10326000830300933BB15B1E009303681B689B05BF
:1032700005D5009BF6E7036C43F020030364436B22
:1032800003B1D963836B03B1D96303681C6824F469
:1032900080641C604185436B03B11965836B03B186
:1032A000196503681C6824F001041C6090F83D4017
:1032B0002023602C0BD0282434EA02020FD080F89F
:1032C0003D3080F83E1000BFFEF7CDFA38BD80F8E3
:1032D0003D3080F83E100164FEF74EF938BD0268BB
:1032E000136843F0010313600268136843F48063BA
:1032F0001360016380F83D40E6E7000020000020F5
:1033000070B5044690F83D0094F83E10102901D0A5
:10331000402906D1222804D121680A6822F40062DB
:103320000A60282131EA00024FF000054FF0200624
:1033300026D021684968090505D4602803D084F89F
:103340003D6084F83E50256320684168090537D503
:10335000416821F400614160606B90F835203C4980
:10336000012A11D00165606BFDF7A1FF38B3206819
:10337000016821F00101016084F83D60606B1CE090
:10338000256384F83D10DFE7A06B0165A06BFDF7B6
:103390008EFFA0B120684169C943490605D4006980
:1033A000616A0870606A401C60622068016821F0F0
:1033B0000101016084F83D60A06B016D884710E059
:1033C00094F83D10602910D04169C943490605D4DD
:1033D0000069616A0870606A401C60622046FEF7FE
:1033E00042FA206CC1071CD115E084F83D602564C9
:1033F0004169C943490605D40069616A0870606A79
:10340000401C60622068016821F0010101602046D3
:10341000FEF7B2F8E5E7810703D4410701D40007BE
:1034200004D52068416821F4E061416094F83D00D2
:10343000216C49070BD5282809D10648E06225638D
:1034400084F83D6084F83E502046FEF7D1FA70BD06
:10345000453200080000FFFF01684A69D243520567
:103460000FD46FF480624A61002140F8301F20229F
:1034700042738173026942F0040202610173012008
:1034800070470020704710B5C26A438D0168042B55
:1034900006D0438D032B08D0438D022B1DD012E0A4
:1034A0004A6822F480624A600CE04B6823F480632F
:1034B0004B60042A06D0022A04D001680A6822F46C
:1034C00080620A6001680969426A1170416A491C98
:1034D0004162418D491E418510BD012A30D0102A1C
:1034E0002ED0042A30D0022A2ED00A6842F400726C
:1034F0000A6001680969426A1170416A491C4162A7
:10350000428D521E4285026812690A70416A491C46
:103510004162418D491E418501684A6822F440722A
:103520004A60202180F83D1090F83E200021402A7A
:1035300080F83E100CD012210163FEF75AFA10BD3C
:103540000A6822F48062D3E70A6842F48062CFE717
:103550000163FEF750FA10BD38B590F83D102229EE
:1035600014D1418D032912D901680969426A117089
:10357000416A491C4162418D491E4185418D0329A3
:1035800004D10068416821F48061416038BDC26A9D
:10359000022AFBD0012901D00029F7D1274946F2A0
:1035A000A81300220968B1FBF3F101EB810100913E
:1035B00001682023009C641E009422D00C68A4059E
:1035C000F8D40C6824F480640C6001684C6824F41E
:1035D000E0644C6001680969446A2170416A491CD1
:1035E0004162418D491E418580F83D3090F83E1082
:1035F00080F83E2040291DD012210163FEF7F9F921
:1036000038BD046C44F0200404644C6824F4E06485
:103610004C6001680969446A2170416A491C416231
:10362000418D491E418580F83D3080F83E20FEF7EF
:103630001AF938BD0263FEF7DEF938BD200000201C
:1036400010B5C26A90F83D1021290BD1418D51B1BE
:10365000416A026809781161416A491C4162418DE1
:10366000491E418510BD20230021082A13D0202A9D
:1036700011D012F5803F0ED00268546824F4E06443
:1036800054601122026380F83E1080F83D3000BF84
:10369000FEF7B0F910BD0268546824F4E064546089
:1036A0000268146844F400741460016380F83D30CB
:1036B00090F83E2080F83E10402AE9D1FEF79CF9B0
:1036C00010BD000010B590F83D1090F83E30C26A71
:1036D000048DB4B1212903D0402B11D122290FD15F
:1036E000418DE1B390F83E10402942D0416A026812
:1036F00009781161416A491C4162418D491E418529
:1037000010BD2129E8D120230021082A13D0202A26
:1037100011D012F5803F0ED00268546824F4E064A2
:1037200054601122026380F83E1080F83D3000BFE3
:10373000FEF760F910BD0268546824F4E064546038
:103740000268146844F400741460016380F83D302A
:1037500090F83E2080F83E10402AE9D100E002E0D7
:10376000FEF74AF910BD0068416821F480614160AC
:1037700010BDBDE8104000F0D3B8000078B590F857
:103780003E50C26A036B90F83D6000240168222E0F
:103790007AD1066D0EB9402D76D0056D1DB905693B
:1037A000B5F5404F09D0458D05B3468D384D012EF6
:1037B0000ED0438D022B3AD05DE04A698A690092AF
:1037C0000A6842F480720A60016D491C016578BD87
:1037D000AA4213D10A6822F480620A6001684A682A
:1037E000120503D50A6822F4806216E04A698A69E4
:1037F00000920A6842F400720A6039E0082A10D088
:10380000202A0ED0122B0AD0042A03D0022A01D07B
:10381000102AE7D10A6842F480620A6024E0012A93
:10382000E0D00A6822F480620A600168DEE7042AB8
:1038300021D0022A1FD0102A1DD00B6823F48063E8
:103840000B6001680B6843F400630B6001684B6810
:103850001B0509D5AA4212D0012A10D0082A0ED081
:10386000102A0CD0202A0AD001684A69896900917F
:10387000046578BD08E00B6843F48063E5E74A68B7
:1038800042F480524A60EFE7486988690090F0E7A7
:103890000000FFFF90F83E10402910D00169B1F5FB
:1038A000804F19D0016DA9B3016D012910D1416C70
:1038B0005FF0F10201F4407142EAD11106E0016DBE
:1038C0000029416C05D0C9B241F0010100680161D5
:1038D000704701F0FE01F9E790F83D102129416C95
:1038E00009D0C9B241F0010102681161416B29B1EF
:1038F000C96B49B902E001F0FE01F5E7816B0029CF
:10390000E6D0C96B0029E3D00068416841F400614A
:1039100041607047FFE7416CF02201F44071CBE752
:1039200010B590F83D10026D22B3026D012A2FD020
:10393000026D022A1DD122292FD0428D0AB12129E0
:1039400033D0428D002A14D1212912D101684A684E
:1039500022F4E0624A6001680A6842F400720A6078
:1039600000210163202280F83D2080F83E10FEF700
:1039700043F810BDC16C0129816C02D0C1F307214D
:1039800008E00268C9B21161016D891C016510BDB2
:10399000816CC9B20268116104E001680A6842F4EE
:1039A00080720A60016D491CF0E7416A026809787B
:1039B0001161416A491C4162418D491E418510BD1A
:1039C0002DE9F84F0446006889460B9D016898462A
:1039D000174641F4806101602068016841F48071FC
:1039E000016000954FF0011B0022594620460A9BBA
:1039F00000F078F94FF4007A40B120680068C00503
:103A000001D5C4F840A00320BDE8F88F216809F073
:103A1000FE0008612B46284920460A9A00F096F9D4
:103A2000F0BB20684169806900902A4620460A99C7
:103A300000F00AFA40B1206C04283AD120680168ED
:103A400041F40071016034E0FEB2B8F1010F09D019
:103A50002168380A08612A4620460A9900F0F4F9DC
:103A60000028E8D1206806612A4620460A9900F01D
:103A7000EBF90028DFD12068016841F48071016012
:103A800000950022594620460A9B00F02BF9002899
:103A9000B3D1216809F0FF0040F00100086100E0A7
:103AA00007E02B46044920460A9A00F04FF9002807
:103AB000AAD00120A8E700000200010038B50C469A
:103AC00090F83D2000212825954302680B4605D03B
:103AD00051699169009180F83C3038BD556825F4F2
:103AE00080655560E243540700D50121120601D5D7
:103AF000828900E0028B80F83C3092B2FDF73DFDF8
:103B000038BD00002DE9F04190F83D40C26A002325
:103B100020261C4F01686FF48065082A01D0202AF6
:103B200001D1282C04D0212C16D04D61BDE8F081A4
:103B3000C7624A6822F4E0624A6001684D61016828
:103B40000A6822F480620A60036380F83D6080F8AE
:103B50003E30FDF74DFFE9E7C7622122026380F89E
:103B60003D6080F83E304A6822F4E0624A600168B5
:103B70004D6101680A6822F480620A60FEF781F8EC
:103B8000D4E700000000FFFFF8B590F83D60044660
:103B90000068416821F4E0614160206800254169C6
:103BA0000091016841F0010101602068016821F481
:103BB0008061016020684168090520D5474F222EA9
:103BC00048D02A2E46D0616B096849686185618DAD
:103BD00019B1216C41F004012164416821F40061B4
:103BE0004160606BFDF775FB012808D0606B0765CD
:103BF000606BFDF75CFB10B1606B016D8847608DF9
:103C000008B320684169C943490708D40069616A5B
:103C10000870606A401C6062608D401E608520688C
:103C20004169C943490608D40069616A0870606A3D
:103C3000401C6062608D401E6085608D18B1206CF4
:103C400040F004002064206C00B32046BDE8F8403A
:103C5000FFF756BBA16B096849686185618D19B191
:103C6000216C41F004012164416821F4006141604C
:103C7000A06BFDF72EFB0128C1D0A06B0765A06BE0
:103C8000FDF715FB0028BAD0A06BB6E72A2E06D1A7
:103C90002563282084F83D002046FDF7F1FF94F8C5
:103CA0003D10202028290DD0216B222901D0222E61
:103CB00007D1256384F83D0084F83E502046FDF787
:103CC000DFFFF8BD0649E162256384F83D0084F812
:103CD0003E502046FDF78CFEF8BD0000453200083E
:103CE0000000FFFF2DE9F0471E4690460D460446B2
:103CF000C1F30747DDF8209008E0701C06D0FDF7FF
:103D000035FCA0EB0900B0420FD876B12068012F36
:103D100018D0806925EA00000004000C14D00021AE
:103D20004145EAD00020BDE8F087002044F8300F7C
:103D300020216173A073216941F02001216120736A
:103D40000120F0E74069E5E70121E9E72DE9F047C7
:103D50009A4691460E46044600254FF02008C1F3CE
:103D6000074725E020684069C043400514D4206817
:103D7000016841F40071016021686FF4806048615E
:103D8000256384F83D8084F83E50206C40F00400A8
:103D9000206484F83C501FE0B9F1FF3F08D0FDF7E4
:103DA000E5FBA0EB0A0149450CD8B9F1000F09D099
:103DB0002068012F13D0806926EA00000004000C5F
:103DC0000BD0CFE744F8305F84F80D80A5732069ED
:103DD00040F02000206125730120BDE8F087406994
:103DE000EAE72DE9F041002590460E4604462027DB
:103DF00017E04069C043C0060CD454F8301B6FF084
:103E00001000486144F810596777A577206A20624E
:103E1000257717E0FDF7AAFBA0EB0800B04208D811
:103E20003EB120684169C9434906E2D40020BDE89B
:103E3000F08144F8305F6773A573206940F020007B
:103E4000206125730120F2E770B516460D46044641
:103E50000DE02046FFF700FB08B1012070BD681C93
:103E600005D0FDF783FB801BA84207D835B1206839
:103E70004069C0430006ECD4002070BD002044F827
:103E8000300F20216173A073216941F0200121616D
:103E90002073E2E710B500210348FEF7EBFD03496C
:103EA0000120487110BD0000F4010020280000200E
:103EB0001CB50446062269463B2000F0CBF808B149
:103EC00001201CBD9DF800009DF8011041EA002072
:103ED000E0809DF802009DF8031041EA0020208157
:103EE0009DF804009DF8051041EA00206081002043
:103EF0001CBD1CB5044606226946432000F0AAF802
:103F000008B101201CBD9DF800009DF8011041EA98
:103F1000002020809DF802009DF8031041EA002057
:103F200060809DF804009DF8051041EA0020A08003
:103F300000201CBD70B5044600F0A0F805462046E0
:103F4000FFF7D7FF05432046FFF7B2FF054301D037
:103F5000012070BDB4F9060000EE100A3948B8EE31
:103F6000C00A03F01FF9374890ED020ABDEEC00AFF
:103F700010EE100AE080B4F9080000EE100A314893
:103F8000B8EEC00A183003F00DF92E48183090ED45
:103F9000020ABDEEC00A10EE100A2081B4F90A0030
:103FA00000EE100A2748B8EEC00A303003F0FAF8E5
:103FB0002448303090ED020ABDEEC00A10EE100A1F
:103FC0009FED220A60812048B4F90010D0ED000A6C
:103FD00020EE801A00EE901AF8EEE01ADFED1C0ACF
:103FE00001EEA01A80ED001ABDEEC11A11EE101AF2
:103FF0002180B4F9021090ED011A01EE901A21EE21
:10400000001AF8EEE11A01EEA01A80ED011ABDEED9
:10401000C11A11EE101A618090ED021AB4F9041061
:1040200021EE000A01EE101AB8EEC11A01EE200AC4
:1040300080ED020ABDEEC00A10EE100AA08000203A
:1040400070BD00008C000020880400209A99593F20
:104050009A99193E0EB5FF238DE80E000246012302
:10406000D1210548FDF7CAFC00284FF0010002D11C
:1040700003F058F800200EBD1001002038B50446AA
:10408000022269464120FFF7E5FF08B1012038BD53
:10409000BDF8000040BA00B2FCF75DFA9FED081BC6
:1040A00053EC112BFCF7E8F99FED071B53EC112B98
:1040B000FCF7C9F8FCF799FAE060002038BD000071
:1040C0000000000000407540A4703D0AD743424004
:1040D000F0B587B014216846FCF7AAF83E480024E2
:1040E000016841F010010160016801F010010591C3
:1040F000016841F004010160016801F004010591CB
:10410000016841F080010160016801F080010591C2
:10411000016841F001010160016801F001010591B0
:10412000016841F002010160016801F0020105919E
:10413000016841F0080101600068284E00F00800A5
:104140004FF470450590002229463046FDF709FAE4
:10415000234F00220F213846FDF703FA0122702178
:104160003846FDF7FEF97C20CDE9000469461D487C
:104170000294FDF7F9F8022000904FF44410CDE9C5
:10418000010469461848FDF7EFF800950125CDE9CF
:104190000154694630460394FDF7E6F87F2000900D
:1041A000CDE90154694638460394FDF7DDF84FF434
:1041B000F07000904FF48810CDE901046946304654
:1041C000FDF7D2F8002211460720FDF7C3FD0720B6
:1041D000FDF7B2FD07B0F0BD3038024000040240E8
:1041E000000C024000100240000802400D4810B5CB
:1041F0000B4901600C49416000214FF4804281600D
:10420000C0E9031241618161C1610162FDF72CFBCC
:10421000002803D0BDE81040FCF720BD10BD000011
:104220000058004010010020801A060010B58CB024
:1042300024216846FBF7FCFF002417480994154920
:104240000A94C0E900144FF6FF71C0E9024104610D
:10425000446184610320CDE900040120CDE902041A
:1042600006210491CDE90540CDE9074169460A4898
:10427000FEF73AF908B1FCF7F1FC099409A90648E0
:104280000A94FEF75DF8002801D0FCF7E7FC0CB0BB
:1042900010BD0000000001406401002010B58CB08A
:1042A00024216846FBF7C4FF0024164809944FF008
:1042B00080410A94C0E900144FF6FF71C0E9024141
:1042C000046184610320CDE900040120CDE90204EA
:1042D00006210491CDE90540CDE907416946094829
:1042E000FEF702F908B1FCF7B9FC099409A90548E1
:1042F0000A94FEF725F8002801D0FCF7AFFC0CB0BB
:1043000010BD0000AC01002010B58AB00024079455
:104310001C2168460894FBF78BFF1A481849016076
:104320004721C0E9011440F2CF71C0E90314846150
:10433000FEF747FB08B1FCF791FC079407A9114869
:104340000894FDF7FDFF08B1FCF788FC6020CDE97B
:1043500000040294002269460A480494FEF7CBFA4E
:1043600008B1FCF77BFC042269460648FEF7C3FA55
:1043700008B1FCF773FC0348FEF77AFA0AB010BDE7
:1043800000040040F401002010B58AB00024079416
:104390001C2168460894FBF74BFF1A481849016036
:1043A0004721C0E9011444F61F61C0E90314846188
:1043B000FEF707FB08B1FCF751FC079407A9114869
:1043C0000894FDF7BDFF08B1FCF748FC6020CDE97B
:1043D00000040294002269460A480494FEF78BFA0E
:1043E00008B1FCF73BFC042269460648FEF783FA55
:1043F00008B1FCF733FC0348FEF73AFA0AB010BDE7
:10440000000800403C0200201CB500240F48009426
:104410000D490194016041F61F41C0E9011440F2C9
:104420008F118461C160FDF7D3FF08B1FCF716FC62
:104430000094694605480194FDF782FF002801D0E9
:10444000FCF70CFC1CBD00000010004084020020A2
:104450000C4810B50A4901604FF4E1314160002178
:1044600081600C22C160C0E904128161C161FEF764
:1044700063FD002803D0BDE81040FCF7EFBB10BD82
:1044800000100140CC0200200C4810B50A49016020
:104490004FF416514160002181600C22C160C0E9D7
:1044A00004128161C161FEF747FD002803D0BDE819
:1044B0001040FCF7D3BB10BD0044004010030020A7
:1044C0000C4810B50A4901604FF4E1314160002108
:1044D00081600C22C160C0E904128161C161FEF7F4
:1044E0002BFD002803D0BDE81040FCF7B7BB10BD82
:1044F00000480040540300200C4810B50A490160F0
:104500004FF4E1314160002181600C22C160C0E9BB
:1045100004128161C161FEF70FFD002803D0BDE8E0
:104520001040FCF79BBB10BD001401409803002015
:10453000FEE7000010B5074C012211462046FDF7AA
:1045400010F8002202212046FDF70BF80249012055
:10455000487110BD000C02402800002010B5074C27
:10456000002201212046FCF7FCFF01220221204607
:10457000FCF7F7FF02490120487110BD000C024012
:104580002800002010B5074C002201212046FCF72E
:10459000E8FF002202212046FCF7E3FF0249002049
:1045A000487110BD000C02402800002010B5074CD7
:1045B000002204212046FCF7D4FF012208212046D6
:1045C000FCF7CFFF02490120887110BD000C0240AA
:1045D0002800002010B5074C012204212046FCF7DA
:1045E000C0FF002208212046FCF7BBFF0249012042
:1045F000887110BD000C02402800002010B5064C48
:10460000002204212046FCF7ACFF20460022BDE832
:1046100010400821FCF7A5BF000C02402DE9F04135
:104620001C4617460D4600F06BFA40F26C76B54218
:1046300000D33546284600F079FA384600F080FA73
:10464000B44200D334462046BDE8F04100F08EBAB3
:1046500010B50748FFF76EFC05499FED060A0C39B7
:104660000348FCF7FDFA02480C3890ED020A10BD31
:1046700068040020B020CD3BFEE7000070B5064680
:104680005FF0000404F1B000C0B200F0A1F8002017
:1046900000F09EF8102000F09BF80025304600F056
:1046A000C9F86D1CEDB2802DF8D3641CE4B2082C5F
:1046B000E8D370BD70B53C4C012211032046FCF7D5
:1046C00050FF0122550329462046FCF74AFF0122EC
:1046D00029462046FCF745FF01229503294620463E
:1046E000FCF73FFF002229462046FCF73AFF6420F2
:1046F000FCF7F2FD012229462046FCF732FFAE20EE
:1047000000F066F8D52000F063F8502000F060F863
:10471000A82000F05DF83F2000F05AF8D32000F008
:1047200057F8002000F054F8402000F051F88D2098
:1047300000F04EF8142000F04BF8202000F048F86C
:10474000022000F045F8A12000F042F8C02000F05F
:104750003FF8DA2000F03CF8122000F039F8812010
:1047600000F036F85F2000F033F8D92000F030F880
:10477000F12000F02DF8DB2000F02AF8302000F0C6
:1047800027F8A42000F024F8A62000F021F8AF209C
:1047900000F01EF80020FFF771FFBDE87040002117
:1047A000084600F003B800000004024010B50446BB
:1047B000C1F1B700C0B200F00BF804F00F0000F038
:1047C00007F8102040EA1410BDE81040AFF3008055
:1047D0002DE9F047164E05464FF4004900224946A0
:1047E0003046FCF7BEFE00244FF40058B7140022F8
:1047F00039463046FCF7B5FE280601D5012200E017
:10480000002241463046FCF7ACFE012239463046D4
:10481000FCF7A7FE6806641C050EE4B2082CE6D37C
:1048200049463046BDE8F0470122FCF79ABE000039
:10483000000402402DE9F047154E05464FF40049AB
:10484000012249463046FCF78CFE00244FF4005804
:10485000B714002239463046FCF783FEE80701D042
:10486000012200E0002241463046FCF77AFE012298
:1048700039463046FCF775FE641C6D08E4B2082C1E
:10488000E7D349463046BDE8F0470122FCF769BE50
:1048900000040240F0B513480146B0F800C04F884C
:1048A0008E88CD88097AFCB2F3B2EAB2BCF1010F6E
:1048B00008D0BCF1020F04D10B4804708370427021
:1048C000C170F0BD0FB1094F3C700EB1084C2370A0
:1048D0000DB1084B1A70084A11700849807A0870A7
:1048E000F0BD000050090020FC0000202A0000203C
:1048F0002B0000202C0000200400002005000020D8
:104900002DE9F041384F394900252DED048B787998
:1049100010B1012807D013E0F879232810D1012025
:1049200078710D600CE0F879242813D02C2852D02F
:10493000BA7921F81200521CBA713879401C3871CA
:1049400029490122BDEC048BC91DBDE8F04128486E
:10495000FEF7DCBBB8790C28F2D100269FED259B31
:1049600088460024C4F10100FBF7F5FD41EC110B72
:10497000B0EE490AF0EE690A01F06AF804EB46016C
:10498000B0EE408A38F81100F0EE608A3038FBF75C
:10499000E2FD53EC182BFBF7FDFC41EC180B3889BA
:1049A000FBF7EAFD53EC182BFBF74DFCFBF7F1FD91
:1049B000641C3881022CD5DB104921F81600761CC6
:1049C0003D81062ECDDBFFF765FF7D71BD71FD7169
:1049D000C8F80050B4E73879022803D07D71BD7162
:1049E000FD710D603D71ABE7FC000020C0070020A9
:1049F000CC020020000000000000244050090020EC
:104A000026489FED250ADFED260A80ED000A80ED9D
:104A1000010A80ED020A80ED030A80ED070A9FED8E
:104A2000211ADFED211A1030C0EC030A103080ED9E
:104A3000000A80ED010A80ED020A80ED030A80ED94
:104A4000070A1030C0EC030A7038F1EE000A80ED5E
:104A5000000A80ED010A80ED020A80ED030A80ED74
:104A6000070A9FED121AC0ED040A80ED051A80EDC9
:104A7000060A203080ED000A80ED010A80ED020A6E
:104A800080ED030A80ED070AC0ED040A80ED051AE7
:104A900080ED060A70470000000000001C040020A2
:104AA000B81E053EA69B443B6F12033B0AD7233C2E
:104AB0007047000010EE100AF6EE000A074960EE9B
:104AC000200AA1EB600000EE100AB7EE081A60EEB3
:104AD000800A00EEC01A21EE000A7047DF59375FE6
:104AE00010B504210348FDF7C5FF03490120887173
:104AF00010BD0000F40100202800002070470000D5
:104B000010B5094C012806D0022808D0FFF73AFD5D
:104B10000020207010BDFFF721FD0120F9E7FFF70D
:104B200009FD0220F5E7000028000020024909687D
:104B30004863024948817047F401002028000020A2
:104B400010B5094C012806D0022808D0FFF756FD01
:104B50000020607010BDFFF73DFD0120F9E7FFF771
:104B600025FD0220F5E70000280000200249096821
:104B70008863024988817047F401002028000020E2
:104B800070B51A4C00210122A1702171E2702172CE
:104B90004FF4FA75A0B1012819D0022824D1FFF7EB
:104BA00057FD84ED080AB3EE070A00BF012284ED29
:104BB000090A29462B460220BDE87040FFF72EBDAA
:104BC000FFF746FD84ED080AB2EE080AEEE7FFF7AC
:104BD0003FFD84ED080ABAEE080A022284ED090AB4
:104BE00029462B460120E7E770BD00002800002081
:104BF00005480168491C016001680168642901D108
:104C000000210160FDF73EB81000002030B593B0E0
:104C100030216846FBF70CFB14210CA8FBF708FBBE
:104C20001C480024016841F080510160006800F0D8
:104C3000805011901848016841F48041016000687B
:104C4000022500F480401190012003901020049070
:104C5000009506950820CDE907404820CDE90905D3
:104C600004200B906846FDF793F908B172B6FEE791
:104C70000F20CDE90C054FF48050CDE90E40022104
:104C80000CA81094FDF798F8002801D072B6FEE742
:104C900013B030BD40380240007000400248016847
:104CA00041F470010160704788ED00E00148FDF7B4
:104CB0002BBD0000640100200148FDF725BD000068
:104CC000640100200148FDF71FBD000064010020C1
:104CD0000148FDF719BD0000640100200148FDF7FF
:104CE00013BD0000F40100200148FDF70DBD0000D8
:104CF00084020020F0B50268254C264D264E274F31
:104D0000274B4FF0804CA04209D0604507D0A84205
:104D100005D0B04203D0B84201D0984204D122F06D
:104D2000700E4A6842EA0E02A0421BD0604519D0BC
:104D3000A84217D0B04215D0B84213D0984211D033
:104D4000184DA8420ED0184DA8420BD0174DA842BE
:104D500008D0174DA84205D0164DA84202D0164DD6
:104D6000A84203D122F44075CA682A434D6922F053
:104D700080022A4302608A68C2620A688262A04294
:104D800001D0984201D10969016301214161F0BD5F
:104D9000000001400004004000080040000C0040FA
:104DA000000401400040014000440140004801402F
:104DB00000180040001C00400020004010B501F029
:104DC0001F030121046A99408C430462016A9A40DE
:104DD0001143016210BD0000F0B5026A22F0010229
:104DE0000262036A42688469124E24F073050C68FB
:104DF0002C4323F002058B682B430D4DA84201D0B4
:104E0000B04205D123F00807CB683B4323F00403ED
:104E1000A84201D0B04205D14D6922F44072154339
:104E20008A692A4342608461496841630362F0BD34
:104E30000000014000040140F0B5026A22F01002B7
:104E40000262026A436884690D6824F4E64444EA15
:104E500005248D6822F0200242EA05120F4D104E03
:104E6000A84201D0B04206D1CF6822F0800242EAC7
:104E7000071222F04002A84201D0B04207D14D698A
:104E800023F4406343EA85038D6943EA8503436065
:104E90008461496881630262F0BD00000000014046
:104EA00000040140F0B5026A22F480720262026AD4
:104EB0004368C46922F4007224F073050C68124E32
:104EC0002C438D6842EA05220E4DA84201D0B04223
:104ED00006D1CF6822F4006242EA072222F48062FF
:104EE000A84201D0B04207D14D6923F4405343EAB0
:104EF00005138D6943EA05134360C4614968C163C2
:104F00000262F0BD000001400004014030B5026AB9
:104F100022F480520262046A4268C3690D6823F475
:104F2000E64343EA05238D6824F4005444EA05343B
:104F3000084DA84202D0084DA84204D14D6922F480
:104F4000804242EA85124260C3614968016404629A
:104F500030BD0000000001400004014010B5806B2E
:104F60000021C185C184FDF7B1FE10BD01680C317F
:104F700051E8002F22F4907241E80023002BF5D174
:104F80000168143151E8002F22F0010241E80023AA
:104F9000002BF5D1016B012909D101680C3151E8D1
:104FA000002F22F0100241E80023002BF5D1202130
:104FB00080F83E1000210163704708B590F83E105C
:104FC000222901D0022008BD82684FF480539A4202
:104FD00001D1016921B1816A9A421BD04AB10AE02C
:104FE0000268816A5268C2F308020A80816A891CD9
:104FF00008E0026972B10268526802F07F020A702A
:10500000816A491C8162C18D491E0904090CC18550
:1050100003D019E002685268F1E70168CA6822F01B
:105020002002CA600168CA6822F48072CA600168FE
:105030004A6922F001024A61202180F83E10016B8A
:10504000012903D0FEF778F8002008BD0021016394
:1050500001680C3151E8002F22F0100241E80023D2
:10506000002BF5D101680A68D20602D50A684968A2
:105070000091818DFDF729FEE6E7000070B504463A
:1050800000680169E26821F440511143016121691E
:10509000A068E26908436169114308432168CA684E
:1050A00049F20C639A430243CA6020684169A269CD
:1050B00021F440711143416131492068884202D096
:1050C0003049884202D1FCF721FF01E0FCF70EFFD6
:1050D000E2690023192164253226B2F5004F626887
:1050E00028D0A0FB0101930F9200FBF769F801465D
:1050F000B0FBF5F06FF01802504301EB800006EBB7
:105100000010B0FBF5F000F0F002B1FBF5F002EB9F
:105110000012B1FBF5F06FF01803584301EB80006B
:1051200006EB0010B0FBF5F000F00F002168104412
:10513000886070BDA0FB010192185B41FBF740F84D
:105140000146B0FBF5F00201B1FBF5F06FF018037A
:10515000584301EB800006EBC000B0FBF5F000F017
:10516000F80002EB4002B1FBF5F0584301EB800080
:1051700006EBC000B0FBF5F000F00700D6E700003A
:10518000001001400014014081628285C285002127
:105190000164222280F83E2080F83C100168CA6831
:1051A00042F48072CA6001684A6942F001024A61B1
:1051B0000068C16841F02001C160002070472DE9FE
:1051C000F041984617460E460446069D27E0681CA7
:1051D00025D02DB1FCF7CAF9A0EB0800A8421ED9D2
:1051E00020680C3050E8001F21F4D07140E8001214
:1051F000002AF5D12068143050E8001F21F0010189
:1052000040E80012002AF5D1202084F83D0084F8FF
:105210003E00002084F83C000320BDE8F0812068B7
:10522000006836EA000004D00020B842CFD0002049
:10523000F3E70120F9E700000148FDF749BD000050
:10524000CC0200200148FDF743BD00001003002000
:105250000148FDF73DBD0000540300200148FDF763
:1052600037BD000098030020FEE7000070B50D4C2C
:1052700001202DED028B0025A070B0EE408A257133
:10528000094802F0F9F8B0EE480A084802F0F4F8CC
:10529000FEF700FEFFF724FCA561E561BDEC028B83
:1052A00070BD000028000020DC030020FC0300206B
:1052B000F0B5484C4EF660212DED048B85B0206989
:1052C000484300EE100AB8EEC00ADFED439A4348A7
:1052D000C0EE298AB0EE680A02F0D2F8B0EE408A39
:1052E00018EE100AFBF76EF941EC100B3CA053ECE2
:1052F000102B00F087F8B5EEC08A012602270025A2
:10530000F1EE10FA03DD2670BCEEC80A09E0B5EE36
:10531000C08AF1EE10FA08D2B1EE480A2770BCEE4E
:10532000C00A10EE100A608101E025706581606995
:105330004EF66021484300EE100A2B48B8EEC00A32
:1053400080EE299AB0EE490A02F09AF8B0EE408A4F
:1053500018EE100AFBF736F941EC100B23A053ECC2
:10536000102B00F04FF8B5EEC08AF1EE10FA03DD15
:105370006670BCEEC80A09E0B5EEC08AF1EE10FA1C
:1053800008D2B1EE480A6770BCEEC00A10EE100AEF
:10539000A08101E06570A58119EE100AFBF712F9F2
:1053A00006460F4618EE900AFBF70CF904460E4825
:1053B0000D460068FBF706F98DE8F00041EC100B94
:1053C0000CA053EC102B00F01DF805B0BDEC048BC5
:1053D000F0BD00002800002000802247DC030020F0
:1053E000252E32662C000000FC030020252E32669C
:1053F0000D0A0000256C662C256C662C256C660D4C
:105400000A0000000FB4054B10B503A9044A029826
:1054100001F0E6FA10BC5DF814FB00008D71000885
:105420000801002003B401984100009850EAC1200F
:1054300018BF04204A0D18BF40F0010040F2FF726F
:10544000B2EB515F08BF40F00200012808BF052001
:1054500002B070474100080218BF04200A0E18BFAE
:1054600040F001004FF07F4232EA010108BF40F0F6
:105470000200012808BF052070470907090E00280F
:1054800004DB00F1E02080F80014704700F00F000A
:1054900000F1E02080F8141D7047000000000000BB
:1054A00070B5C1482DED020B2DED0E8B82B0119D14
:1054B00025F000449FEDBEDB9FEDBFEB84423EDB59
:1054C000A4F140511098A1F17F6108430FD0BC486E
:1054D000844202DC28D1109830B39DED100B02B04D
:1054E000BDEC0E8B02B0BDE8704001F061B99DEDDE
:1054F000100B53EC1D2B51EC100BFAF74BFF9DEDED
:10550000100B41EC180B53EC1E2B51EC100BFAF75F
:1055100041FF53EC182BFAF796FE41EC100B02B04A
:10552000BDEC0E8B02B070BD012001F0A1F902B0FC
:10553000BDEC0E8B02B0BDE8704001F04DB9A14842
:105540009FEDA18B844256DA9DED100BB4F1795F8B
:105550000ADA51EC100BFFF765FF042808BF01F0D1
:105560005BF99DED100BDAE753EC102B51EC100BAF
:10557000FAF710FF41EC190B95480621B0EE490AE5
:10558000F0EE690A784401F07FF853EC192B51ECE6
:10559000100BFAF7FFFE41EC1A0B8E48B0EE490AE9
:1055A000F0EE690A0421784401F06EF853EC192BEF
:1055B00051EC100BFAF7EEFE53EC182BFAF743FE02
:1055C00041EC100B51EC1A0B53EC102BFAF754FF73
:1055D000CDE900019DED000B53EC102B9DED100B60
:1055E00051EC100BFAF7D6FE9DED101B53EC112B6E
:1055F000FAF729FED2E09DED100B51EC100B01F0F3
:10560000B9FD53EC182BFAF7C2FE9FED730BCDE9F1
:10561000000153EC102B9DED000B51EC100BFAF731
:10562000B9FE41EC190B6E480621B0EE490AF0EEC6
:10563000690A784401F028F853EC192B51EC100B4F
:10564000FAF7A8FE41EC1B0B6648B0EE490AF0EEF3
:10565000690A0421784401F017F853EC192B51EC36
:10566000100BFAF797FE53EC182BFAF7ECFD41EC10
:105670001C0B51EC190B01F051FF41EC180B5A486F
:105680009FED5BABA04222DC53EC1C2B51EC1B0BBF
:10569000FAF7F2FECDE900019DED000B51EC180B7D
:1056A00053EC102BFAF776FE53EC182BFAF7CBFDE0
:1056B00053EC1A2BFAF76EFE53EC1D2BFAF764FE2F
:1056C00053EC1E2BFAF763FE41EC100B5FE08DEDFF
:1056D000008B002000909DED000B51EC180B53EC5B
:1056E000102BFAF7B0FD9DED000B41EC1E0B53ECB7
:1056F000102B51EC100BFAF74DFE53EC192BFAF767
:1057000046FE53EC1E2BFAF7B7FE41EC190B53EC97
:105710001C2B51EC1B0BFAF7AFFE41EC1B0B53ECAF
:105720001A2B51EC190BFAF735FE53EC1D2BFAF737
:105730002EFE41EC190B53EC1A2B51EC180BFAF717
:1057400029FE53EC1B2BFAF725FE53EC192BFAF725
:105750001BFE9DED000B41EC180B53EC1A2B51EC8A
:10576000100BFAF717FE9FED249B53EC192BFAF759
:105770000EFE41EC100B51EC180B53EC102BFAF70A
:1057800003FE53EC192BFAF702FE41EC100B002D2F
:105790003FF7C5AE51EC100B81F0004141EC100B0E
:1057A000BDE60000000000000000F03F0000000027
:1057B000075C143326A6913C182D4454FB21F93F75
:1057C0000000F07F0000E03F000000000000F03F1C
:1057D000202000002E200000000000000000E03F1C
:1057E000721F0000801F00003333EF3F00000000F5
:1057F0000000000000000040182D4454FB21E93F48
:1058000010EE100A10B510EE901A4FF0684202EB3D
:1058100040032DED028BB3F1654F3CBF02EB41021B
:10582000B2F1654F7CD200BFC0F3C753C1F3C7527A
:105830009A1A1B2A09DD10F0004F14BF9FED6E0A63
:105840009FED6E0ABDEC028B10BD12F11A0F1BDA30
:1058500011F0004F09D010F0004F0CBF9FED680A07
:105860009FED680ABDEC028B10BD80EE208A18EE19
:10587000100AFFF7EFFD042808BF00F0E1FFB0EECB
:10588000480ABDEC028B10BD4200B2EB410F37D984
:1058900010F0004F19BFDFED5C1A9FED5C1ADFEDD1
:1058A0005C1A9FED5C1AB0EE602A0A46F1EE400ADF
:1058B00080F00041B0EE420A10460A1A5200B2F1DE
:1058C000807F34D2484010F0004FDFED532A9FED27
:1058D000533A1DBFBEEE002A71EEE21A31EE431AB2
:1058E000B6EE002A04BF71EEA21A31EE031AF0EEF2
:1058F000402A42EE602A40EE020A82EEA02A18E018
:1059000011F0004F04BF9FED461AF0EE411AD4D0BB
:1059100010F0004F1CBFDFED431A9FED431A00E06B
:1059200026E004BFDFED411A9FED411AC5E780EE86
:10593000202A22EE020ADFED3F0ADFED3F2ABDEC0E
:10594000028B40EE202ADFED3D0A40EE220ADFED19
:105950003C2A40EE202ADFED3B0A40EE220A22EEEE
:10596000000A00EE201A31EE020A30EE210A10BDC4
:105970004FF07F42B2EB400F28BFB2EB410F05D290
:10598000BDEC028BBDE8104000F056BF40EA0103B9
:105990005B0008BF41F0FF410BD0B2EB400F08BFE6
:1059A000B2EB410F08D120F0804000EE100A21F048
:1059B000804100EE901A37E7B2EB400F12BF5FEA6A
:1059C000410240F0FF4001F000413FF42DAF4A009A
:1059D00092EA40033FF528AF002AACBF9FED1A1AA8
:1059E0009FED1A1A20EE010A60EE810A10EE100AED
:1059F00010EE901A18E70000DB0FC9BFDB0FC93F9C
:105A0000DB0F4940DB0F49C00000C9BF22AAFDB926
:105A10000000C93F22AAFD390060ED3EC30ACE371F
:105A200000000000000049C022AA7DBA00004940E1
:105A300022AA7D3A2DAD65BD8FB8D53D0FB511BEFB
:105A400061C84C3EA8AAAABE0000804F0000802F6B
:105A50002DE9F04D2DED040B2DED0C8B96B0DDE90D
:105A60002350259CDDF888A025F0004624F000484E
:105A7000BAF1000F14BF0121002101EB4502FE49DC
:105A800053184A1093422AD3002814BF012300233D
:105A900003EB44030B44F9498B4220D358EA00013D
:105AA0009FEDF78B6FD0DFF8E0B35D4503D1BAF11E
:105AB000000F05D187E0BAF1000F08BF002100D028
:105AC000012101EB450111F5001F08D8002814BF82
:105AD0000121002101EB440111F5001F0BD99DEDBF
